:020000040800F2
:10000000FFFF04201146000855130008591300088B
:100010005D1300086113000865130008000000006C
:10002000000000000000000000000000691300084C
:100030006D1300080000000071130008751300081C
:1000400061460008614600086146000861460008F4
:1000500061460008614600086146000861460008E4
:1000600061460008614600086146000861460008D4
:1000700061460008614600086146000861460008C4
:1000800061460008614600086146000861460008B4
:1000900061460008614600086146000861460008A4
:1000A0006146000861460008614600086146000894
:1000B000614600088D13000861460008614600088B
:1000C0006146000861460008614600086146000874
:1000D000614600088913000861460008614600086F
:1000E0006146000861460008614600086146000854
:1000F0006146000861460008614600086146000844
:100100006146000861460008614600086146000833
:100110006146000861460008614600086146000823
:100120006146000861460008614600086146000813
:100130006146000861460008614600086146000803
:10014000614600086146000861460008791300080E
:1001500061460008614600088513000861460008F2
:1001600061460008614600086146000861460008D3
:100170006146000861460008614600080000000072
:1001800061460008614600086146000861460008B3
:1001900061460008614600086146000861460008A3
:1001A0006146000861460008614600086146000893
:1001B0006146000861460008614600086146000883
:0801C0006146000861460008D9
:1001C800044B05481B1A062B02D9044B03B11847E8
:1001D800704700BFB71E0120B41E012000000000B8
:1001E80005490648091A891001EBD171491002D056
:1001F800034B03B118477047B41E0120B41E0120F9
:100208000000000010B5064C237843B9FFF7D8FF6B
:10021800044B13B10448AFF300800123237010BDD1
:10022800B41E0120000000006450000808B5084B07
:100238001BB108490848AFF300800848036813B9A0
:10024800BDE80840CCE7064B002BF9D09847F7E704
:1002580000000000B81E012064500008B41E0120F0
:1002680000000000844641EA000313F003036DD147
:10027800403A41D351F8043B40F8043B51F8043B61
:1002880040F8043B51F8043B40F8043B51F8043B68
:1002980040F8043B51F8043B40F8043B51F8043B58
:1002A80040F8043B51F8043B40F8043B51F8043B48
:1002B80040F8043B51F8043B40F8043B51F8043B38
:1002C80040F8043B51F8043B40F8043B51F8043B28
:1002D80040F8043B51F8043B40F8043B51F8043B18
:1002E80040F8043B51F8043B40F8043B51F8043B08
:1002F80040F8043B403ABDD2303211D351F8043BA8
:1003080040F8043B51F8043B40F8043B51F8043BE7
:1003180040F8043B51F8043B40F8043B103AEDD256
:100328000C3205D351F8043B40F8043B043AF9D2A7
:10033800043208D0D2071CBF11F8013B00F8013B7A
:1003480001D30B8803806046704700BF082A13D387
:100358008B078DD010F003038AD0C3F10403D21A9F
:10036800DB071CBF11F8013B00F8013B80D331F8D3
:10037800023B20F8023B7BE7043AD9D3013A11F853
:10038800013B00F8013BF9D20B7803704B784370BE
:100398008B7883706046704700B583B001F058FBD6
:1003A800A0B101F057FB6A460146002001F0DAF8D7
:1003B8000128F3D1019BDB79973B092BEED8DFE8C5
:1003C80003F02C2824201C1814100C0803B05DF826
:1003D80004FB684600F06CFAE0E7684600F042FA71
:1003E800DCE7684600F01CFAD8E7684600F0F4F944
:1003F800D4E7684600F0C6F9D0E7684600F092F9FD
:10040800CCE7684600F0F4F8C8E7684600F052F90F
:10041800C4E7684600F022F9C0E7684600F0A6F88D
:10042800BCE700BF10B500F067FA01F07DF801F0F5
:100438000DFB044601E0FFF7AFFF01F007FB001BCF
:10044800B0F5FA7FF7D901F001FB0446002000F06F
:10045800B9FAF0E70B464FF0960CF0B5054653F89D
:10046800034F4878CBB00A7805EB4507897801AE89
:1004780042EA00225868CDF8074008ACCDF80B00D6
:100488004FF0130E9868DB68CDF80F00CDF81330E5
:10049800354BADF804208DF8061003EB87070FCE17
:1004A8000FC4BA790DF11B003368FE26511C8DF874
:1004B8001C2024F8023B1B0CB971002123704FF655
:1004C800FF728DF81FC073468DF81A600DF11F0476
:1004D8008DF81BE08DF81D108DF81E1001E010F846
:1004E800013F5340844283EA0313DBB24FEA1311FE
:1004F80081EA122242EA032282EAC302EFD108A962
:1005080016460DF13300ADF8182011F8013B734081
:10051800814283EA0313DBB24FEA131282EA1622FE
:1005280082EA032282EAC3039BB29EB2ADF8186046
:10053800EBD183F0F404284606A984EA0414E4B253
:10054800220982EA162282EA042282EAC404A4B2B8
:10055800A3B28DF833401A0AADF818308DF834205C
:1005680000F0E4FF4BB0F0BDD01E0120F0B54568A7
:1005780089B000240646EA78684605F10801019426
:10058800092A00948DF8084028BF0922FFF76AFE5F
:100598009DF80030012B01D009B0F0BD124A03A923
:1005A800124BED7912681B684FEA122E3078170C3F
:1005B8008DF80E50160EADF80C401D0A8DF80F2060
:1005C8001C0C8DF810E01A0E8DF811708DF8126061
:1005D8008DF813308DF814508DF815408DF81620CD
:1005E800FFF738FF09B0F0BDF0140120001F01200B
:1005F800F0B544688422A7B00021E678054605A82E
:10060800964228BF164604F019FB04F1080105A814
:100618003246FFF727FE104B9DF817209E68586852
:100628009F89D989104432449DF8166001370131F9
:10063800012E58609F819A60D98101D027B0F0BD02
:10064800002226A9E379287821F8982D8DF8023020
:10065800FFF700FF27B0F0BDD824012070B545682A
:1006680088B000240646EA78684605F10801019436
:10067800092A00948DF8084028BF0922FFF7F2FDE7
:100688009DF800200A4B012A9C81DC811C609C603B
:100698005C6001D008B070BD08A9EB79307821F80A
:1006A800144D8DF80E30FFF7D5FE08B070BD00BFB1
:1006B800D8240120F0B5456889B000240646EA78B8
:1006C800684605F108010194092A00948DF808404C
:1006D80028BF0922FFF7C6FD9DF80030012B01D085
:1006E80009B0F0BD0E4B03A9ED79DA899B68170AAA
:1006F80030788DF80E501E0A1D0CADF80C401C0EFB
:100708008DF80F208DF810708DF811308DF812606B
:100718008DF813508DF81440FFF79CFE09B0F0BD1A
:10072800D8240120416830B5CA7889B0002408313E
:10073800072A054601A8019428BF0722CDF80740DB
:10074800FFF790FDBDF808200C49019800F098FECD
:100758009DF80A200A4B012A9C815C6001D009B0EF
:1007680030BD6B6808A92878DB7921F8144D8DF81D
:100778000E30FFF76FFE09B030BD00BFE82401203E
:10078800D8240120416830B5CA7889B000240831DE
:10079800092A05466846019428BF092200948DF865
:1007A8000840FFF75FFD00F0A7FE9DF80020094B09
:1007B800012A9C815C6001D009B030BD6B6808A932
:1007C8002878DB7921F8144D8DF80E30FFF742FEBA
:1007D80009B030BDD824012070B545688AB000241E
:1007E8000646EA7801A805F1080102940D2A019449
:1007F800039428BF0D228DF81040FFF733FD9DF8B4
:100808000830012B01D00AB070BD0AA9EB79307805
:1008180021F8144D8DF81630FFF71CFE0AB070BD94
:1008280070B5456888B000240646EA7801A805F145
:1008380008010194072ACDF8074028BF0722FFF7CF
:1008480011FD9DF80A30012B01D008B070BD08A930
:10085800EB79307821F8144D8DF80E30FFF7FAFD5A
:1008680008B070BD70B545688422A6B00021EC7848
:10087800064605A8944228BF144604F0DFF905A8E7
:1008880005F108012246FFF7EDFC9DF81630012B13
:1008980001D026B070BD002226A9EB79307821F866
:1008A800982D8DF80230FFF7D5FD26B070BD00BF3A
:1008B80070B5456888B000240646EA78684605F1B0
:1008C80008010194092A00948DF8084028BF0922DC
:1008D800FFF7C8FC9DF80030012B01D008B070BDAF
:1008E80008A9EB79307821F8144D8DF80E30FFF710
:1008F800B1FD08B070BD00BF70B582B0002501F031
:10090800C5F8164C00F064FD00F034F800F030F83B
:10091800134B01952A461E6C06211D2046F002063F
:100928001E641B6C03F002030193019B01F0F0F8B5
:100938001D2001F027F92A4620460A4903F0D0FA7B
:100948002046094903F0E2FA0849204600F032F946
:10095800204603F0E3FA02B070BD00BFE86401204E
:1009680000380240241601204015012014160120E9
:10097800704700BF70B5104B86B000240F4E104D65
:1009880000942246196B286841F4807119631B6B27
:10099800318803F480730093009B01F0B1FB328827
:1009A8000123286801A9019203940494029301F099
:1009B8008BFA06B070BD00BF00380240F814012061
:1009C800F414012000B17047024A034B11881868DB
:1009D80001F09ABBF8140120F4140120D0F8183261
:1009E8001BB10020C3F8140270470220704700BFF3
:1009F800D0F81C3210B5D0F818425BB194F8000258
:100A0800FF2807D09B68214694F801229847FF23C6
:100A180084F80032002010BD43230380004870474B
:100A2800FC1401204323038000487047C8150120A7
:100A38004323038000487047841501200A2303805C
:100A4800004870477815012038B50446D0F8185288
:100A580000F0EEFBD4F81832C5F80C024BB1D4F80C
:100A68001C3205F50371D5F80402DB6898470020AD
:100A780038BD022038BD00BF70B50B780C4613F0A6
:100A8800600214D0202A10D1CA88054622B31B065A
:100A9800D0F8186214D44B78314686F80032E388CF
:100AA80086F80132E28803F07FFD002070BD4B78A4
:100AB8000A2BFAD101220B4903F060FD002070BD1A
:100AC800D0F81C32314660789B689847E2883146F6
:100AD800284603F053FDE8E7D0F81C3248789B68B5
:100AE8009847E2E7041F012010B50446812100F071
:100AF8005BFB0121204600F057FB2046822100F0D5
:100B080053FBD4F8183253B1D4F81C325B689847B9
:100B1800D4F8180203F0D2FD0023C4F818320020DC
:100B280010BD00BFF8B5037C044673BB4FF40073D7
:100B38000222812100F02EFB4FF4007302220121D2
:100B4800204600F027FB082303228221204600F0DC
:100B580021FB4FF4077003F0A9FD0546C4F81802FD
:100B680030B3D4F81C3200261B689847277CC5F898
:100B780014622046C5F81862D5F804228FB14023C4
:100B8800012100F04DFB3046F8BD402302228121AF
:100B980000F000FB402302220121204600F0FAFA6F
:100BA800D1E74FF40073012100F03AFB3846F8BD55
:100BB8000120F8BD19B1C0F81C12002070470220AE
:100BC800704700BFD0F818320020C3F80812C3F8E5
:100BD80010227047D0F818320020C3F8041270476A
:100BE80070B5D0F8185285B1D5F814420CB101206F
:100BF80070BD0126B5F81032D5F808228121C5F854
:100C0800146200F005FB204670BD022070BD00BFD5
:100C1800D0F818228AB1D2F8042210B5047C2CB17D
:100C28004023012100F0FCFA002010BD4FF40073AE
:100C3800012100F0F5FA204610BD0220704700BFE0
:100C480000207047F8B50B68D3B100240F4B01386A
:100C58000F4EA6461F4602E00A68A24210D91A683B
:100C6800013410F8015FB5541A6801321A601A6825
:100C7800B2F5804FF0D1C7F800E00A68A242EED87A
:100C88000448FFF7C5FF0020F8BD00BF081F01207A
:100C98000C670120E864012070B50E4C5323002531
:100CA80040F2CF720C4920460C4E63602160E2602E
:100CB8002561A56002F0E6FB204602F08FFA2A467D
:100CC80030460749FFF77EFF30460649FFF782FFA7
:100CD800284670BD10B3012000040040E8640120DC
:100CE80010A7012010AF0120202813D021280FD1F0
:100CF800104B1A680A701A68120A4A705A888A7061
:100D0800DA78CA701A790A715A794A719B798B71A3
:100D18000020704770B4074B01200E680D794C799C
:100D2800054A8979107000201E601D715C719971E7
:100D380070BC70470C160120051F012038B5164AF3
:100D4800164B18681168884221D0186811688842C3
:100D58001ED812681C68141B1B68A2B210491148DF
:100D680019440E4DFFF72EFF0E48FFF739FF58B90B
:100D78002B681C442C602B68B3F5806F00D1286069
:100D8800094B01221A7038BD074B00221A7038BD72
:100D98001C68C4F58064DFE70C1F0120141F0120C4
:100DA80010A70120E8640120051F0120214B5B6882
:100DB800002B3ED02DE9F041DFF888E09EF80030A6
:100DC800002B34D0B1F5006F0E4628BF4FF40066F3
:100DD80072B60EB30139184B4FF0000C06440144AB
:100DE8009846164F05E0884200F1010011D0B04244
:100DF80013D01C681A68057801323D551A601A68C4
:100E0800B2F5806FEFD18842C8F800C000F1010048
:100E1800EDD162B6BDE8F081074B62B608489EF88E
:100E2800004000E01CB1196802689142FAD1BDE89F
:100E3800F0817047E86401200C1F012010A70120F1
:100E4800141F0120051F0120034A044B10681B686A
:100E5800C01A18BF01207047081F0120101F012069
:100E680010B40B480B4C2268036809499A42FAD01F
:100E78000B68094AD05C0B68C0B201330B600B6881
:100E8800B3F5804F01D100230B605DF8044B704728
:100E9800101F0120081F01200C6701200368B3F10F
:100EA800A04F2DE9F04190B000F09580744A93422C
:100EB80002D010B0BDE8F081724C00250227202234
:100EC80004950A26236B4FF003080BA96E4843F0DC
:100ED80001032363236B03F001030493049B05952B
:100EE800236B3B432363236B3B400593059B06958C
:100EF800236B43F004032363236B03F0040306937B
:100F0800069B0795236B43F080032363236B03F051
:100F180080030793079B0895236B43F4807323632F
:100F2800236B0B9203F480730C970893089B0D9521
:100F3800CDF838800F9600F0C7FF08230BA9524858
:100F48000B930C970D95CDF838800F9600F0BCFFE9
:100F580043F623430BA94D480B930C970D950F9619
:100F680000F0B2FF01230BA949480B930C970D958C
:100F78000F9600F0A9FF10230BA946480B930C9776
:100F88000D950F9600F0A0FF4FF400630BA942489F
:100F98000B930C970D950F9600F096FF09952A462E
:100FA800236B06214D2043F080432363236B03F01A
:100FB80080430993099B0A95236B43F000532363ED
:100FC800236B03F000530A930A9B00F0A1FD4D2008
:100FD80000F0D8FD6DE72B4B002504464FF4C051B7
:100FE800019502201A6B03270A2642F001021A63B0
:100FF8001B6B0B910BA903F001030C902248019382
:10100800019B0D950E970F9600F05EFFA36A012BCA
:101018002BD001220A234FF4806512240BA91A4809
:101028000B950C9400240D920F9300F04DFF154B77
:101038002246029406215D6B432045F080055D63DE
:101048005D6B05F080050295029D03945C6C44F489
:1010580080445C645B6C03F480430393039B00F05F
:1010680057FD432000F08EFD23E74FF400730BA9D2
:1010780005480C950D950B9300F026FFC9E700BFB6
:101088000000044000380240000002400004024012
:1010980000080240001C02400020024000F5607178
:1010A800D0F8BC0302F052BFC1EBC10300EB8303CD
:1010B800D0F8BC03D3F8E42102F078BFC1EBC10338
:1010C80000EB8303D0F8BC031A6C02F0A3BF00BF87
:1010D800D0F8BC0303F024B8C16838B50D1C044629
:1010E800D0F8BC0318BF012502F0E4FFD4F8BC0314
:1010F8002946BDE8384002F0FDBF00BFD0F8BC0368
:1011080002F0FCBFD0F8BC0303F002B8D0F8BC036F
:1011180003F016B8D0F8BC0303F010B8D0F8BC033D
:1011280003F010B8D0F8BC0303F00EB870B5144C37
:101138000025022304224FF0A0414026C4F8BC0336
:10114800C0F820422046A361E360E562256125627C
:10115800E561A5626562666184E8060000F0DAFF71
:101168002046802101F086FC32462946204601F0BF
:101178005BFC20468022012101F056FC284670BD08
:101188004CB3012008B5D0F8200201F035F8002052
:1011980008BD00BF10B51C46D0F8200213462246F1
:1011A80001F006FB002010BD08B5D0F8200201F0C0
:1011B80045FB002008BD00BF08B5D0F8200201F0AB
:1011C800D7FB002008BD00BF08B5D0F8200201F009
:1011D80001FC002008BD00BF0B06D0F8202206D471
:1011E800C1EBC10102EB810191F8DA01704701F00E
:1011F8007F03C3EBC30302EB830393F83600704706
:1012080008B5D0F8200201F0C1FA002008BD00BFDF
:1012180008B5D0F8200201F079FB002008BD00BF16
:1012280008B5D0F8200201F031FB002008BD00BF4E
:1012380008B5D0F8200201F05FFB08BD1223014871
:101248000B80704744160120042301480B80704727
:1012580040160120B2B1013AD2B270B40132002472
:1012680052002646030F0001092B03F1300503F154
:10127800370394BF0D550B550B1902345E70944219
:10128800F0D170BC704700BF0B4B1A220B481B688B
:1012980000680A80181801D109487047094B0822CC
:1012A800094910B51C68FFF7D5FF042207492046F5
:1012B800FFF7D0FF024810BD107AFF1F187AFF1FF2
:1012C80058160120147AFF1F5A1601206A160120A9
:1012D80010B5044C0A460448214603F029F9204673
:1012E80010BD00BF0CB701207C5000080A46064913
:1012F80008B520B1054803F01BF9034808BD0448A8
:1013080003F016F9004808BD0CB70120A8500008E2
:101318008450000810B5044C0A460448214603F0DE
:1013280007F9204610BD00BF0CB70120CC500008BB
:1013380010B5044C0A460448214603F0F9F8204643
:1013480010BD00BF0CB70120D8500008704700BF7F
:10135800FEE700BFFEE700BFFEE700BFFEE700BFF5
:10136800704700BF704700BF704700BF00F0A0BBC8
:10137800014800F057BF00BF4CB30120704700BFC1
:10138800704700BF014801F03DBF00BF10B3012006
:101398000B490346086878B10A4A03441268126880
:1013A800A2F50052934201D80B607047064B0C22FD
:1013B8004FF0FF301A607047044A10460A60EBE7A6
:1013C800181F012008ED00E028B801202CB80120E2
:1013D800F0B593B0022401274FF480364FF480050E
:1013E80019214FF4D872092306A8069707960C947A
:1013F80010940D950E910F92119301F095FB00B189
:10140800FEE701F053FB034600B1FEE70F264FF459
:10141800A0554FF48052072101A802940393019626
:101428000495059201F090FD00B1FEE713B0F0BD00
:101438000F4A104BD2F888000F4940F4700070B47E
:10144800C2F88800002418684FF000650B4E40F081
:10145800010018609C601868014019605E60196896
:1014680021F480211960DC60956070BC704700BF72
:1014780000ED00E000380240FFFFF6FE10300024C7
:101488002DE9F0474FEA92088246894618F0030F83
:1014980026D008F1010800F0CBFBC9EB0A0A4C463C
:1014A800002701E0B84520D0A6780AEB040165784A
:1014B8000023360419F827E0E278022046EA0525D9
:1014C8000137043445EA0E0545EA026200F0F0FBF4
:1014D8000028E7D0142400F0BDFB2046BDE8F087C3
:1014E80000F0A6FBB8F1000FD7D1002400F0B2FB42
:1014F8002046BDE8F08700BF10B5042386B002225D
:101508000021039305920493029100F091FB01A935
:1015180002A800F071FC00280CBF0024162400F07B
:1015280099FB204606B010BD704700BFF0B5CE78D5
:10153800ADF2044D0D460746B41D023168462246F9
:10154800FEF790FE2B880DEB0402190A0DF8043003
:10155800517027B906F10801684600F07DFA0DF2CE
:10156800044DF0BD2DE9F04F054685B090460C4678
:10157800107090B9B74EF37830700A2B00F2D7810B
:10158800DFE813F0650065006B0087008E009300AC
:101598009800AF00CD00EE00EE00AE4E0701AE4B56
:1015A800002107EB0009F27B317303EB09190A2AC2
:1015B80000F2E581DFE812F0080108010F012F01B0
:1015C8003E0146015601720199010B000B000A2ADF
:1015D800DFF888A205D0BAF81021B4EB122F00F07A
:1015E800248202223273039202934FF0010C337C5F
:1015F8004FF48872484686F80FC00AEB030E019331
:10160800964B8EF819419918DFF848B2FEF72AFE72
:10161800039B012B029B40F00F82904A92F8141111
:10162800BBF814208BF811100AB9ABF816203D440A
:1016380000209AF813110132B07303EB051301204F
:10164800B282D970C8F8049005B0BDE8F08FFE29C1
:1016580000F0DC81814BDB7813E0804800212346D1
:1016680004220588C4706C40317184EA0414F27055
:10167800E2B2110981EA152141EA022181EAC20296
:10168800028075490022CB70B270002005B0BDE819
:10169800F08F72480522058841716C40C378E4E7F1
:1016A8006E48032205880171F7E76C480622058811
:1016B8008171F2E769480588C17181EA0502C3783A
:1016C80082EA0212D2B2110981EA152141EA022105
:1016D80081EAC2020280002B40F084810822F27065
:1016E800CFE75E4D33795B4F581C2B441972C0B25B
:1016F800B5F800E0EB7881EA0E043071984284EA8C
:101708000414E2B24FEA121181EA1E2141EA0221D1
:1017180081EAC2022A80B4D10822FA70B1E7DFF860
:101728003CA14F4A9AF80730BAF80010D35C4B40F6
:1017380083EA0313DBB21A0982EA112242EA03227E
:1017480082EAC303DAB2AAF80030944214BF0A232B
:101758000923F370337953441C729AF8033090E7E5
:101768000A2BDFF8F8A005D0BAF80030B1EB132F38
:1017780000F0578102239B46337035790127DFF843
:10178800DC904FF488720AEB0503F770324849463B
:101798005C72FEF767FDBBF1010F2E4F40F04981E7
:1017A80099F804203B897A7103B97B812A4A01336D
:1017B8009AF80340002101203381D470C8F804202E
:1017C800B17005B0BDE8F08FFE2C00F01181234AFE
:1017D80092F8132118E0DFF884E000212246BEF8D1
:1017E80010C18EF8134184EA0C043174042184EA90
:1017F8000414F173E1B2080980EA1C2040EA0120D0
:1018080080EAC101AEF810113D44002103EB051533
:10181800B173EA7039E7DFF844E00522BEF810C179
:101828008EF8154184EA0C04F2739EF8132184EAB9
:101838000414DFE7DFF824E00322BEF810C18EF8B5
:101848001441EFE7DFF814E00622BEF810C18EF865
:101858001641E7E75C2301208C2301201C1F01208F
:10186800E8500008DFF8D8E1BEF810C18EF817413B
:1018780084EA0C049EF8132184EA0414E1B20809EE
:1018880080EA1C2040EA012080EAC101AEF810116C
:10189800002A40F0AA800821F173B5E7DFF8A0C15B
:1018A800327CDFF8A08102F1010E624482F818410F
:1018B8005FFA8EFEBCF810919CF8132184EA0904A3
:1018C80086F810E0964584EA0414E1B24FEA111054
:1018D80080EA192040EA012080EAC101ACF8101121
:1018E80092D1082188F80F108EE7DFF854A15349E8
:1018F8009AF81721BAF810018A5C424082EA02126B
:10190800D2B2110981EA102141EA022181EAC20218
:10191800D1B2AAF810218C4214BF0A220922F2730C
:10192800327C524482F818419AF813216CE73579D1
:101938004FF0000CDFF808A19AF803300027DFF811
:1019480008E1B7708EF803303D4E3E4ABCF1000FF7
:101958003FF49BAE73190121FE2C1770587A1B7A3D
:10196800917043EA0023AEF8003001D0D1708CE6C4
:101978004FF6FF7382F803C0F770338085E6327C38
:101988000021DFF8BCA001924FF488729AF813C1C5
:101998000020DFF8B4E002FB05332A4AB07383F86D
:1019A80003C0274E00293FF470AE019B3D44FE2C36
:1019B8004FF0010733444FEA0515107393F819C126
:1019C80093F81831977343EA0C232EF8053001D0A9
:1019D800D7735AE64FF6FF73D17386F81301A6F84A
:1019E800103152E60722F2704BE60721F1730BE73C
:1019F8001349022200204FF6FF7EF27381F812414C
:101A08000246A1F810E181F81301FDE60C4A022311
:101A180000214FF6FF70F37094700B461080D17060
:101A28002FE601239B463370A7E601220392327307
:101A3800DAE54FF0020C7FE70221A5E7E85000083D
:101A48001C1F01205C2301208C23012000F038B8E2
:101A5800FFF7FAB9FFF704BA10B50C46FFF7A6F975
:101A6800204610BD10B5044601F09CFB064BA3FBB5
:101A78000030800900F092F8214600224FF0FF3034
:101A880000F046F8002010BDD34D6210074A03202D
:101A980008B5136843F40073136000F025F80020BC
:101AA800FFF7E0FF00F034FB002008BD003C0240D7
:101AB800024A136801331360704700BF9C24012059
:101AC800014B1868704700BF9C24012010B582B0F4
:101AD8000190FFF7F5FF0446FFF7F2FF019B001B9B
:101AE8009842F9D302B010BD07494FF6FF02000231
:101AF800064B10B4CC6800F4E06022405DF8044B5B
:101B080013430343CB60704700ED00E00000FA0583
:101B1800194BDB68C3F3022330B4C3F107051C1D5E
:101B2800042D28BF0425062C19D9033B01249C4009
:101B3800013C22400124002804FA05F404F1FF3492
:101B480001EA040101FA03F342EA03020ADB120183
:101B58000A4BD2B2034483F8002330BC70470022FA
:101B68001346E7E700F00F001201054BD2B2034419
:101B78001A7630BC704700BF00ED00E000E100E0DD
:101B8800FCEC00E000F01F010123034A40098B40F0
:101B980042F82030704700BF00E100E00138B0F1A2
:101BA800807F0DD2074B0022072130B4F025064C68
:101BB8005860104684F823509A60196030BC70470A
:101BC8000120704710E000E000ED00E0164BDB68F4
:101BD800DB0604D5154A936943F010039361124B51
:101BE800DB68980604D5114A936943F008039361AA
:101BF8000D4BDB68590604D50C4A936943F004037E
:101C08009361094BDB681A0604D5084A936943F0C7
:101C180002039361044BDB689B0704D5034A93696D
:101C280043F0200393617047003C02400CB8012048
:101C3800054B1A69002A01DB01207047034900207F
:101C4800034A59605A607047003C024023016745C7
:101C5800AB89EFCD034A0020136943F000431361B9
:101C6800704700BF003C02400F4B002270B504468D
:101C78009A610E4DFFF724FF064601E0621C0BD166
:101C8800EB680A4ADB03F9D4D36813F0F20002D0F8
:101C9800FFF79CFF012070BD24B1FFF711FF801BE7
:101CA8008442EDD2032070BD0CB80120003C0240F4
:101CB8002DE9F041354C1F46237D012B02D102202E
:101CC800BDE8F081012305464CF25030164688469F
:101CD8002375FFF7C9FF00BB032D15D8DFE805F012
:101CE800450233212A4BB6B2196921F440711961B2
:101CF800196941F480711961196941F0010119618B
:101D0800A8F80060BFF34F8F4CF25030FFF7ACFFDC
:101D18001F4A136923F00103136100232375BDE8EB
:101D2800F0811B4B1A6922F440721A611A6942F455
:101D380040721A611A6942F001021A61C8E9006723
:101D4800BFF34F8FE0E7124B1A6922F440721A6111
:101D58001A6942F400721A611A6942F001021A61A2
:101D6800C8F80060BFF34F8FCEE7094BF6B2196988
:101D780021F4407119611A691A61196941F0010168
:101D8800196188F80060BFF34F8FBDE70CB80120D8
:101D9800003C024010B439B3012927D002290CBFF6
:101DA8004FF400724FF44072124B78211C6924F4EE
:101DB80040741C611C6922431A611A6922F0F802F6
:101DC8001A6191FAA1F11A69B1FA81F142F002029D
:101DD8008840104318611A6942F480321A61BFF3CF
:101DE8004F8F5DF8044B70470A46DDE74FF4807269
:101DF800DAE700BF003C02402DE9F843DFF8C48071
:101E080098F81430012B02D10220BDE8F883012391
:101E180004464CF25030894688F81430FFF724FF06
:101E2800074640BB4FF0FF33C9F800302368012B49
:101E380027D06568A3682B449D421CD2204E05E03C
:101E4800A268013563681344AB4214D9217B284644
:101E5800FFF7A0FF4CF25030FFF706FF336923F07D
:101E680002033361336923F0F80333610028E7D0B4
:101E78000746C9F800500023384688F81430BDE8F2
:101E8800F8830F4DE36829691B0221F4407103F4BC
:101E98007F4229612B6943F004032B612B6943F4CA
:101EA800803313432B61BFF34F8F4CF25030FFF751
:101EB800DBFE2B69074623F004032B61DBE700BF39
:101EC800003C02400CB801202DE9F04FD1F800C0C9
:101ED80083B00024DFF82082DFF820E203E0013439
:101EE800102C00F0B5800123A34033EA0C02F6D190
:101EF8004D6825F01006022E40F0AD80E70804F08A
:101F080007024FF00F0B0E6900EB87079200D7F816
:101F180020A04FEA44090BFA02FB06FA02F22AEA69
:101F28000B0A4FF0030B42EA0A060BFA09F205EA1C
:101F38000B0B3E62D24306680BFA09F716403E4384
:101F48000660C5F30016876806FA04FACE6807EA41
:101F5800020B06FA09F747EA0B078760466826EA84
:101F680003064AEA06064660C7688E683A4006FADB
:101F780009F63243C260EA00B1D5002624F0030B0B
:101F8800534F04F0030A01964FF00F09D8F8442084
:101F98005F444FEA8A0A42F4804B09FA0AF2C8F809
:101FA80044B0D8F8449009F48049CDF80490DDF89D
:101FB8000490D7F8089029EA0209464A904260D06E
:101FC80002F5806290425ED0434A90425FD0434A15
:101FD800904260D0424A904265D0424A904266D0D0
:101FE800414A904267D0414A904268D0404A904264
:101FF80069D0404A904252D00A2606FA0AF249EAC3
:102008000202DE430134BA60EF03DEF800204CBF61
:102018001A433240AF03CEF80020DEF804204CBF4C
:102028001A433240EF02CEF80420DEF808204CBFF5
:102038001A433240AD02CEF80820DEF80C2054BF17
:1020480006EA02031343102CCEF80C307FF44BAF92
:1020580003B0BDE8F08F4FEA440903220768013E48
:1020680005EA020A02FA09F2012E6FEA02020AFAE6
:1020780009FA07EA02074AEA070707603FF674AF5A
:102088005FE73246BBE7012606FA0AF2B7E70226FF
:1020980006FA0AF2B3E7032202FA0AF2AFE70922C4
:1020A80002FA0AF2ABE7042202FA0AF2A7E70522CB
:1020B80002FA0AF2A3E7062202FA0AF29FE70722C7
:1020C80002FA0AF29BE7082202FA0AF297E700BF2F
:1020D800003801400000024000080240000C0240A5
:1020E800001002400014024000180240001C024088
:1020F800002002400024024000380240003C014019
:1021080002B90904816170474369594041617047C8
:10211800704700BF002868D00323F0B505468BB090
:10212800044680F87D33061DFEF7B8FE28686F4622
:1021380001F00AFA54F810CBA646BEE80F000FC704
:10214800BEE80F000FC7DEF8003060463B6001278D
:1021580096E80E0001F0B2F90021286801F0FCF9B8
:1021680000212B462A46084682F834101C32D183B7
:10217800013157760F29D07610625062D062F3D1C0
:1021880000222F68114683F8D82102F140005A87AF
:10219800013207EB800083F8D9110F2A83F8DB118D
:1021A800C3F8E01103F11C03C3F8C811C3F8D01138
:1021B8004160E8D10FCCEE46AEE80F000FCCAEE898
:1021C8000F0023683846CEF8003096E80E0001F07C
:1021D800DDF901226B6A85F87D23934207D02868D0
:1021E80001F0E8FD00200BB0F0BD01207047284643
:1021F80000F044FCF3E700BF90F87C33012B01D1D9
:102208000220704710B501230446006884F87C3327
:1022180001F0C4FD206801F08FF9002084F87C03E8
:1022280010BD00BF2DE9F04F056887B00446284669
:1022380001F0FAFD10B107B0BDE8F08F206801F099
:10224800C5FD0028F7D0206801F0C0FD10F0020F8E
:10225800206801D00223436101F0B8FD010300F1B9
:10226800F4804FF0000A206801F0B0FD10F4802FD0
:10227800206840F08F8001F0A9FD0028C0F2AB81F2
:10228800206801F0A3FD000563D4206801F09EFDDD
:10229800020112D523684FF0006194F8B023596108
:1022A800002A60D15B6D01212046C3F3830384F8C3
:1022B800B013C4F8B43300F0F7FB206801F086FDD2
:1022C800C30400F12681206801F080FD10F4005F4E
:1022D800206840F0008101F079FD10F0100F2068AF
:1022E80011D0836923F0100383612E6AC6F3434338
:1022F80006F00F07022B00F0FE81062B37D083690A
:1023080043F01003836101F061FD070700F152817A
:10231800206801F05BFDC60200F14281206801F0EF
:1023280055FD850200F14D81206801F04FFD400008
:1023380000F12E81206801F049FD41077FF57BAF50
:1023480023685D686A0700F1BB815A682A435A60AE
:1023580071E7D5F80838D90700F1B78120684FF43C
:102368000063436192E72046FEF7C8FEA5E7C7EB86
:10237800C7070822284604F5607101F0A9FCC6F3D6
:102388000A1604EB8703D3F8F0211644C3F8F0616A
:102398002068B4E701F026FD8346002800F0E381B9
:1023A8002068264605F510694FF0000A039509E0F4
:1023B8005FEA5B0B0AF1010A06F11C0609F1200924
:1023C80000F01C811BF0010FF2D05FFA8AF7394642
:1023D80001F01AFDC30705461ED5039B012220699B
:1023E800D3F8341802FA0AF221EA0202C3F83428B0
:1023F80001239842C9F8083000F09B8139462046ED
:10240800FEF75CFE2369012B06D1BAF1000F03D158
:10241800A36C002B00F0AA81280702D50823C9F86D
:102428000830E90602D51023C9F808306A0602D533
:102438004023C9F80830AB0702D50223C9F8083091
:102448002D0600F1E3802068B2E7206801F0C2FCA5
:10245800064600283FF405AF05F53067A0464FF063
:10246800000A08E076080AF1010A07F1200708F1D6
:102478001C083FF4F8AEF207F4D55FFA8AFB20682F
:10248800594601F0B7FC10F0010F814614D0012223
:1024980023699342BA6000F0518159462046FEF7FD
:1024A80003FE2369012B07D1BAF1000F04D1D4F838
:1024B800EC31002B00F0618119F0080F40F0A0808A
:1024C80019F0100F01D01023BB6019F0200FC9D0EC
:1024D8002023BB60C6E701F0ABFC2368DA68184626
:1024E80022F47052DA6001F025F92268002840F0E1
:1024F800F080D3684FF40071E06043F410536161D9
:10250800D3602046FEF7E8FD20684FF4005343618E
:10251800E1E605F500677B682068002123F00103E8
:102528007B6001F0F5F8666866B105F53063002256
:10253800FF210132A3F500702033B242816043F8D5
:10254800181CF6D14FF0FF33E26ABB61FB6943F018
:102558000113FB61002A00F0C580D7F8843043F0EE
:102568000B03C7F884307B6C43F00B037B64D5F80E
:10257800003804F56072217C23F4FE632068C5F8F6
:10258800003801F071FC20684FF4805343619BE6EA
:102598002046FEF7C3FD20684FF080434361CAE63A
:1025A80020465FFA8AF1FEF7B5FD20684FF48013E4
:1025B8004361B4E62046FEF78BFD2068082343619B
:1025C800A7E620465FFA8AF1FEF7A0FD20684FF4DF
:1025D80000134361A9E694F8B013D5F8042801293B
:1025E80022F00102C5F8042800F0B6802046FEF764
:1025F80089FD20684FF00043436142E6039D3AE6B7
:102608002046FEF74BFD0823BB6059E72368B06CF2
:10261800D6F84CE003F51068F26B0493CEEB000398
:1026280008EB4A1893421D46D8F8181028BF1546DB
:1026380089B215F1030C48BF05F1060CB1EBAC0FDC
:1026480040F2A280002800F09F80704540F29C80F4
:10265800CDF814A01546316CDDF810A006E0B26C78
:10266800EAB19A42A2EB030319D9F56B9D42207C8B
:102678003A4628BF1D4600905046ABB201F014FB05
:10268800316CF36CE81C29442B4448BFA81D316405
:10269800F364D8F8182092B2B2EBA00FDFD8DDF8B7
:1026A80014A02068002D3FF783AE049B0122D3F8C5
:1026B800341802FA0AF221EA0202C3F8342877E64B
:1026C8002046FEF72FFD23683FE62046FEF716FD5D
:1026D80044E6D3680320402143F4A053E0606161DD
:1026E800D3600EE77B6943F02B037B613B6943F0C2
:1026F8000B033B613BE747F6F0733340002B3FF495
:10270800FEADC7EBC707C6F30A16284604EB8705D4
:102718003246D5F8E41101F0DBFAD5F8E431D5F802
:10272800F02133441644C5F8E431C5F8F061206857
:10273800E5E5326CF36B134433645FE63B69D8F824
:10274800E011D8F8E421C3F312030A44CB1AC8F8FD
:10275800E421C8F8F031A0E60021204684F8B0133F
:1027680000F0A2F945E78246206884E504F5607226
:102778000121206801F078FB4EE604F56072012122
:10278800206801F071FB97E604988BE790F87C339A
:10279800012B01D10220704710B5012304460068BF
:1027A80084F87C3301F0E8FA002084F87C0310BD3B
:1027B80070B50C0618D4C1EBC1040025022B4FEAF2
:1027C800840404F5EC760444064484F8D811C4F86B
:1027D800E02184F8DB3184F8D9511CD090F87C339F
:1027E800012B1ED1022070BD01F07F04022B4FF097
:1027F8000101C4EBC4054FEA850500EB0506354623
:1028080006F1340685F83440EA6385F837306C877A
:1028180085F83510E2D10023337190F87C33012B11
:10282800E0D0044601233146006884F87C3300F088
:102838009DFF002084F87C0370BD00BF10B5CCB2AA
:1028480023061AD4C1EBC1030A4600EB830303F540
:10285800EC71E4090A704C7090F87C33012B01D1BB
:10286800022010BD04460123006884F87C3300F080
:10287800C3FF002084F87C0310BD01F07F02C2EB87
:10288800C20300EB830303F13401E2E770B501F002
:102898007F060021F500AC1B00EB8404C4F8E4219A
:1028A800C4F8EC3184F8D861C4F8F01184F8D9116F
:1028B8000369012B08BFC4F8E82190F87C23012A9A
:1028C80017D0AD1B0122044600EB850580F87C2358
:1028D800DAB2006805F5EC712EB100F0CFFF0020E8
:1028E80084F87C0370BD01F019F9002084F87C039A
:1028F80070BD022070BD00BF01F07F01C1EBC101B6
:1029080000EB8100B0F8F001704700BFF8B501F0A6
:102918007F0600270121F500AC1B00EB840422642C
:10292800A36484F83460E76484F8351003698B4243
:1029380008BF626490F87C23012A17D0AD1B0122DE
:10294800044600EB850580F87C23DAB2006805F1BF
:1029580034012EB100F092FF002084F87C03F8BD0A
:1029680001F0DCF8002084F87C03F8BD0220F8BDF3
:10297800CAB238B513061CD4C1EBC1030D4600EB2F
:10298800830101F5EC71D20901230D704A708B7037
:1029980090F87C239A4201D1022038BD044680F881
:1029A8007C33006801F0AAF965B1002084F87C0343
:1029B80038BD01F07F05C5EBC50300EB830303F1C8
:1029C8003401E0E704F56072217C206801F04CFADC
:1029D800EBE700BF38B5CCB223061CD4C1EBC1036A
:1029E8000A4600EB830303F5EC71E40900250A703D
:1029F8004C708D7090F87C33012B01D1022038BDCA
:102A080004460123006884F87C3301F097F984F8C0
:102A18007C53284638BD01F07F02C2EBC20300EBAD
:102A2800830303F13401E0E770B40668736AD1B137
:102A3800B46A013903EB14440CD000231846403320
:102A4800013006EB8303C0B25D688842034604EB9D
:102A58001544F4DB403144EA0244002006EB8101CE
:102A68004C6070BC704743EA02440020B46270BCFA
:102A7800704700BF0368002059627047036801214E
:102A8800084A30B4C0F8B81304469969002541F0E3
:102A9800006184F8B05328469961596D0A4330BCE7
:102AA8005A65704703000010704700BF30B51C4AD4
:102AB80083B000211B4B01911C46116C41F08051E1
:102AC8001164126C02F080520192019A1A6842F461
:102AD80080321A60FEF7F4FF054605E0FEF7F0FFC6
:102AE800401BB0F57A7F18D863680E4AD903F5D52C
:102AF8001368144643F400331360FEF7E1FF0546FC
:102B080005E0FEF7DDFF401BB0F57A7F05D8636866
:102B18009B03F6D5002003B030BD032003B030BDC1
:102B280000380240007000400368F0B5DE0783B04B
:102B3800054651D5AA498A6802F00C02042A00F019
:102B480031818A6802F00C02082A00F02781A44B20
:102B58001A681C4622F480321A601A6822F480220D
:102B68001A601A6822F480321A60FEF7A9FF064636
:102B780006E0FEF7A5FF801BB0F5FA7F00F2FD80A6
:102B88002368974A9903F4D4136823F480331360B5
:102B98006B68B3F5803F00F0AA81B3F5A02F00F071
:102BA8004981116821F480211160116821F4803174
:102BB8001160002B40F046811446FEF781FF06465F
:102BC80006E0FEF77DFF801BB0F5FA7F00F2D580A6
:102BD80023689B03F5D42B689F0731D5804A9168F9
:102BE80011F00C0F00F0D080916801F00C01082959
:102BF80000F0C680EB68002B00F00881784B1A685B
:102C08001C4642F001021A60FEF75AFF064605E02C
:102C1800FEF756FF801B642800F2AF802368704AD5
:102C28009807F5D51368F82191FAA1F12869B1FA46
:102C380081F123F0F80300FA01F10B4313602B68CC
:102C48001A0721D45C0738D4AA69D2B1644B9968B1
:102C580001F00C01082900F09E80022A1A681C461F
:102C680022F080721A6000F0FC80FEF729FF05460A
:102C780004E0FEF725FF401B64287ED823689B01EB
:102C8800F7D4002003B0F0BD6B69002B00F09480EE
:102C9800534B5A6F1C4642F001025A67FEF710FF69
:102CA800064604E0FEF70CFF801B642865D8636FB6
:102CB8009B07F7D52B685C07C6D5494A0021494BC5
:102CC8000191116C1C4641F080511164126C02F0A4
:102CD80080520192019A1A6842F480721A60FEF7D3
:102CE800EFFE064604E0FEF7EBFE801B642844D89E
:102CF8002368D805F7D53A4B41F288371A6F1C4636
:102D080022F001021A671A6F22F004021A671A6F7A
:102D180022F001021A67FEF7D3FE064604E0FEF72A
:102D2800CFFE801BB84228D8236F2D4A9907F6D4C6
:102D3800136F23F001031367AB68012B00F0F880D1
:102D4800052B00F0DD80116F21F004011167116F70
:102D580021F001011167002B40F0DA80144641F29E
:102D68008836FEF7ADFE0746236F98077FF56CAFF0
:102D7800FEF7A6FEC01BB042F6D9032003B0F0BD93
:102D8800526856023FF536AF154A126894072BD59C
:102D9800EA68012A28D0012003B0F0BD4A6854022D
:102DA8007FF5D5AE0E4A126890037FF515AF6A68B5
:102DB800002A7FF411AFEEE7094B5A6F1C4622F048
:102DC80001025A67FEF77CFE064604E0FEF778FE2D
:102DD800801B6428D1D8636F9F07F7D46AE700BFC8
:102DE8000038024000700040564CF822216892FAE0
:102DF800A2F22869B2FA82F221F0F80100FA02F28E
:102E08000A4322601A077FF51DAF3DE74D4B1A684C
:102E18001C4622F001021A60FEF752FE064604E044
:102E2800FEF74EFE801B6428A7D823689907F7D4BD
:102E38002B6805E7136843F480231360136843F491
:102E480080331360FEF73CFE3E4C064605E0FEF775
:102E580037FE801BB0F5FA7F8FD823689A03F6D522
:102E6800B9E6FEF72DFE064604E0FEF729FE801BB4
:102E7800642882D82368334A9901F6D447F6C07487
:102E880094FAA4F44FF44033B4FA84FC93FAA3F30D
:102E98004FF07060B3FA83F690FAA0F0E969B0FADF
:102EA80080FEAB6A2F6A6C6A0F435908E86A04FA15
:102EB8000CF4013947F0005500FA0EF0254301FAE9
:102EC80006F314462B4303435360136843F080739F
:102ED8001360FEF7F5FD054605E0FEF7F1FD401B22
:102EE80064283FF64AAF23689A01F6D5C9E6136805
:102EF80023F480231360136843F480331360A1E73D
:102F0800136F43F004031367136F43F00103136750
:102F1800FEF7D6FD0B4C074641F28836236F9B0718
:102F28003FF592AEFEF7CCFDC01BB042F6D924E7C0
:102F3800136F23F004031367136F43F00103136740
:102F4800E6E700BF003802406C4A136803F00F033D
:102F58008B422DE9F0410C4605460CD2136823F04C
:102F68000F030B431360136803F00F03994258D003
:102F78000120BDE8F08103689A0706D56048AA6871
:102F8800816821F0F0010A438260DF0724D56B686D
:102F98005B4A012B126800F08A80022B00F08E80B9
:102FA8009107E5D5564E41F28838B26822F00302FF
:102FB8001343B360FEF784FD6B680746012B65D0A9
:102FC800022B05D16DE0FEF77BFDC01B404572D892
:102FD800B36813F00C0FF6D1484A136823F00F03B7
:102FE80023431360136803F00F039C42C0D12B687E
:102FF8005A0706D54248EA68816821F4E0510A4335
:1030080082601B0707D53E4A2969936823F4604309
:1030180043EAC10393600020FEF724FD0020BDE8C9
:10302800F08103689F0706D53548AA68816821F0B2
:10303800F0010A438260DE07DAD56B68304A012B5B
:10304800126858D0022B53D0910791D52C4C41F2DD
:103058008837A26822F003021343A360FEF730FD0D
:103068006B680646012B32D0022B05D13AE0FEF7F9
:1030780027FD801BB8421ED8A36813F00C0FF6D1A9
:10308800B5E7FEF71DFDC01B404514D8B36803F033
:103098000C03042BF5D19FE7FEF712FDC01B40453A
:1030A80009D8B36803F00C03082BF5D194E796030D
:1030B8003FF578AF5CE70320BDE8F08190013FF56C
:1030C80071AF55E7FEF7FCFC801BB842F3D8A36844
:1030D80003F00C03042BF5D189E7FEF7F1FC801B04
:1030E800B842E8D8A36803F00C03082BF5D17EE7B3
:1030F8009001ABD43CE79403A8D439E7003C0240E4
:103108000038024024498B6803F00C03042B2ED0AE
:10311800082B2AD14A6810B44C6802F03F036202B7
:1031280027D44C6847F6C07090FAA0F047F6C071F3
:103138001A4AB0FA80F02140B2FBF3F221FA00F00B
:1031480002FB00F3144A4FF44030526890FAA0F0A2
:10315800B0FA80F002F440325DF8044B22FA00F035
:1031680001304000B3FBF0F070470C4870470C4842
:1031780070474A6847F6C07090FAA0F047F6C074E6
:103188000749B0FA80F01440B1FBF3F224FA00F0DA
:1031980002FB00F3D6E700BF003802400024F40029
:1031A80040787D0108B5FFF7ADFF084BF0229B681A
:1031B80092FAA2F2B2FA82F203F0F0030449D34081
:1031C800044ACB5CD840106008BD00BF00380240FC
:1031D800E851000874160120704700BF03680020FA
:1031E800DA6842F00102DA601A6842F001021A60F5
:1031F800704700BF704700BF704700BF704700BFEF
:10320800704700BF03681A69910710B5044602D5D4
:10321800DA68920765D41A69520702D5DA68500746
:103228004CD41A69110702D5DA68120734D41A691E
:10323800D00602D5DA68D1061ED41A69D20702D59B
:10324800DA68D0076BD41A69110602D5DA68120653
:103258006DD41A69D00502D5DA6811066FD41A69D7
:10326800520602D5DA68500651D41A69910602D579
:10327800DA68920643D410BD6FF010010822204688
:103288001961DB69227613F4407F6CD0FFF7B4FF35
:10329800002223682276D0E76FF008010422204636
:1032A8001961DB6922769B075AD1FFF7A3FF2046F5
:1032B800FFF7A4FF002223682276B8E76FF0040125
:1032C8000222204619619B69227613F4407F44D17B
:1032D800FFF790FF2046FFF791FF00222368227630
:1032E8009FE76FF00201012219619B690276990735
:1032F8002DD0FFF781FF0022236822768BE76FF03D
:10330800200220461A61BDE8104000F0D3B86FF0E3
:10331800400220461A61FFF773FF2368A5E76FF0A4
:10332800010220461A61FDF709FD23688BE76FF05B
:10333800800220461A6100F0BFF8236889E76FF021
:10334800800220461A6100F0B7F8236887E7FFF784
:1033580051FF2046FFF752FFCDE7FFF74DFFBCE7CF
:10336800FFF74AFFA6E7FFF745FF2046FFF746FFAE
:103378008EE700BF3B4AB0F1804F036870B4A0EB02
:103388000206B6FA86F64FEA56164CD0002E4AD1F7
:10339800A2F57C4290420DD002F58062904209D09D
:1033A80002F57C42304C904218BFA0420CBF01226B
:1033B800002211D12D4A23F070032D4C821A4D683A
:1033C800A042B2FA82F243EA05034FEA521233D01E
:1033D80004F58064A0422FD0234CA04214BF1446A9
:1033E80042F0010444BB234A234D904218BFA8422F
:1033F8000CBF0122002231D005F500651F4CA04208
:1034080018BFA84218D01E4A904229D002F58062FF
:10341800904225D08C680A680360C46282620123E6
:1034280070BC436170474A6823F070030F4C134324
:10343800021BB2FA82F25209CC6823F440738D68F9
:103448001C430B680460C56283620AB9002EE6D08B
:103458000B690363012370BC436170472246EBE7A5
:103468000022E9E700000140000C00400004014090
:1034780000040040004401400040014000180040A2
:10348800001C004098B190F8393010B504465BB183
:1034980002232068211D84F83930FFF76BFF0123D0
:1034A800002084F8393010BDFFF796FEF0E70120C0
:1034B800704700BF704700BF704700BF84B070B549
:1034C8000A9E05AD0446012E85E80E0018D0C36893
:1034D80043F04003C36000F0E9FC4FF48033A3637A
:1034E800089B012B07D1A36843F00C03A360A368D2
:1034F80043F02003A3600020BDE8704004B070478B
:10350800826B0C4B22F48032109982630129C268C5
:1035180003EA0203C360C36823F44013C36003D003
:10352800204600F0C3FCDBE7C36843F48013C360A4
:10353800F6E700BFBFFFBDFF02460020936843F0D7
:1035480001039360704700BF02460020936823F090
:1035580001039360704700BF08B5C368012923F0D1
:10356800C043C36009D019B9C36843F08043C3603E
:103578003220FEF7ABFA002008BDC36843F00053C1
:10358800C3603220FEF7A2FA002008BD84B02DE9FE
:10359800F041866B07AF109C46F40016DDF828E072
:1035A800866387E80E005CB9836B23F4001383639A
:1035B800036843F040030360036843F0800303603B
:1035C80000220C9B00F50066C0F8002E012BD0F8F5
:1035D8000028C0F8002800F08380D0F8003843F0B5
:1035E8000303C0F800384FF48462444B026101E0E1
:1035F800013B02D002699506FAD410223F4B0261C2
:1036080001E0013B02D00269D206FAD400224FF051
:10361800FF3332617261B361F261A9B100F51063E1
:103628004FF090484FF0FF0C154607E01D6001323F
:103638001D61C3F808C0203391422DD01F68002FA8
:10364800F4DAC3F80080F2E73369BEF1010F23F41E
:103658008073336137D000226FF080438261436109
:10366800BEF1000F03D1836943F0100383618169C0
:10367800234B0D9A0B4383611AB1836943F0080306
:103688008361012C03D182691E4B1343836100209F
:10369800BDE8F04104B07047002200F530634FF0F8
:1036A80090484FF0FF0C154607E01D6001321D6180
:1036B800C3F808C020339142C6D01F68002FF4DA3F
:1036C800C3F80080F2E7104D0021104B6FF08042E4
:1036D8003563356B2B433363336B81614261C6E7D6
:1036E800099B23B9D0F80038C0F800387BE7D0F838
:1036F800003843F00103C0F8003874E7400D0300B8
:1037080000383C80040000400001800003000100F4
:103718008901074A41F02001016101E0013A05D021
:10372800036913F02003F9D1184670470320704746
:10373800400D0300D0F8083800F5006213F00600C9
:1037480012D0936803F00603022B0CD0936803F0A1
:103758000603062B07D0936803F00603042B14BF57
:103768000020022070470320704700BF70B44B78D8
:10377800012B1ED00E784FF48034D0F81C584FF42B
:103788003063B4402C43C0F81C480A7803EB42135A
:103798001A5812040AD41D588C68164A2A43CD7840
:1037A800C4F30A010A4342EA85421A50002070BC59
:1037B80070470D784FF41062AB40D0F81C589BB29C
:1037C8002B43C0F81C380C7802EB44131A58150424
:1037D800ECD41E588D68074A3243CE78C5F30A01E7
:1037E800114341EA864242EA845270BC1A500020D2
:1037F800704700BF008000104B78012B70B41DD0BB
:103808000D780124D0F83C684FF4306304FA05F5CC
:1038180026EA0545C0F83C580E78D0F81C58B44044
:1038280025EA0444C0F81C480A7803EB42131A58E6
:1038380022F4004270BC1A50002070470A784FF4F6
:103848001064D0F83C6803FA02F292B226EA020247
:10385800C0F83C280E78D0F81C28B3409BB222EA66
:103868000303C0F81C380B7804EB43131A5822F4EE
:10387800004270BC1A500020704700BF2DE9F04389
:103888004B78012B7CD00D7820234FF43066DFF87D
:1038980084E24C6913FB05659D4F0544D5F810C0BB
:1038A8000CEA0E0EC5F810E00D7813FB056505440B
:1038B800D5F810E00EEA07072F6194B38D68012A46
:1038C8000F782C44DFF850C213FB076704F1FF346C
:1038D8000744B4FBF5F44FEAC448D7F810E0A4B2A3
:1038E80008EA0C0C05FB04F44CEA0E05C4F31204B8
:1038F8003D610D7813FB056303441D6944EA050423
:103908001C6123D0CB78012B29D00A784FF430637F
:1039180003EB4213C25842F00442C2500020BDE8F3
:10392800F0830C78012A8D6813FB0464C5F3120731
:103938000444256945EA070525610C7813FB0463EF
:1039480003441C6944F400241C61DBD10B78CA6869
:1039580000EB4313C3F8142BCB78012BD5D1D0F847
:1039680008380A7813F4807F4FF4306303EB42136E
:10397800C2580CBF42F0005242F08052C250C4E715
:103988004B69002B71D091F800E020254FF41066A8
:10399800DFF88091D1F80880C3F3120715FB0E6E8B
:1039A800DFF86CC18644DEF8104004EA090903EB2D
:1039B8000804CEF81090013C91F800E015FB0E6E5B
:1039C8008644DEF81090B4FBF8F409EA0C0CE40421
:1039D800CEF810C091F800E0DFF83CC115FB0E6E80
:1039E80004EA0C0C00EB0E04D4F810E04CEA0E0EBE
:1039F800C4F810E00C7815FB04640444D4F810E013
:103A080047EA0E072761CC78012C6FD0012A66D0CF
:103A18000F780125D0F83468BD403543C0F83458D4
:103A2800CC78012C4AD00D784FF4106404EB45147F
:103A3800055945F004450551CC78012C7FF46EAF4B
:103A4800002A7FF46BAF9CB20334A4103FF466AF36
:103A58000D78CB6800EB053000F58050013253F843
:103A6800041B94420160F9D158E70D7820244FF4E3
:103A78001067DFF89CE0274E14FB05750544D5F860
:103A880010C00CEA0E0EC5F810E00D7814FB057591
:103A98000544D5F810E04EF4002EC5F810E00D7876
:103AA80014FB0574044425692E402661012A16D0AA
:103AB800CC78012C02D0002BB5D0A9E7D0F8084863
:103AC8000D7814F4807F4FF4106404EB4514055905
:103AD8000CBF45F0005545F080550551A3E70C781B
:103AE8000D6900EB4414C4F8145999E70C7815FBD8
:103AF80004640444276927F0C04727610C7815FB44
:103B0800046505442C6944F000542C61CEE700BFDD
:103B1800FFFF07E00000F8FF0000F81F4B78012BBB
:103B28002DE9F0413FD00D7820244FF430635C4FED
:103B3800D1F814E014FB05355A4E0544D5F810C0E9
:103B48000CEA07072F610D7814FB053303441C6941
:103B580026408C681E61BEF1000F22D10B7820250B
:103B68004FF43067C4F31204012A15FB03730344AE
:103B78001E6946F400261E610B7815FB0373034487
:103B88001E6944EA06041C615AD00A784FF430636F
:103B980003EB4213C25842F00442C2500020BDE871
:103BA800F0814C61DAE74D69002D50D00E78202461
:103BB8004FF4106C3A4BD1F808E014FB06C6394FA5
:103BC80075450644D6F8108008EA030333610B787C
:103BD80014FB03C303441C6907EA04071F6102D9E5
:103BE8007546C1F814E00E7820244FF4106EC5F322
:103BF8001207012A14FB06E60644336943F400233E
:103C080033610B7814FB03E33C4603441E6944EA22
:103C180006041C613CD03DB10D780122D0F834482F
:103C2800AA402243C0F834280A784FF4106303EB03
:103C38004213C25842F00442C2500020BDE8F0814D
:103C48000A78CB6815FB027505446B619DE70C7813
:103C580020234FF41066134FA5F50025012A13FB06
:103C680004640444D4F810E00EEA070727610C78CE
:103C780013FB04640444276947F4002727610C7880
:103C880013FB046303441C6905EA04051D61CBD1D9
:103C98000B780A6900EB4313C3F81429C4E700BF83
:103CA8000000F8FFFFFF07E030B49DF8084064B952
:103CB80003339B1009D000F5805000EB0232013429
:103CC80051F8045BA3421560F9D1002030BC70475D
:103CD800033292100FD0002370B400F580560C46C2
:103CE800013335689A4244F8045BF9D101EB82014B
:103CF80070BC084670470846704700BF4B782022C2
:103D0800012B0B7870B40CBF4FF410654FF430657D
:103D180012FB03531E581C18002E07DB1C5824F0F6
:103D280080441C500B7812FB03521418236800209F
:103D380043F40013236070BC704700BF4B78012B1D
:103D48000B7830B40CBF4FF410654FF43065202465
:103D580014FB03531A5822F400121A50CB78023B72
:103D6800012B06D80B7814FB0354235843F08053D7
:103D78002350002030BC7047034609010020D3F8C7
:103D8800002801F4FE6122F4FE62C3F80028D3F88B
:103D980000281143C3F80018704700BF00F50062FF
:103DA800032008B5536823F002035360FDF78EFE25
:103DB800002008BD00F50062032008B5536843F0F1
:103DC80002035360FDF782FE002008BD4269806946
:103DD8001040704700F50063D0F81808DB691840F8
:103DE800000C704700F50063D0F81808DB6918402C
:103DF80080B2704700F5306300F5006003EB4111B5
:103E08008A6840691040704700F500631A6900EB42
:103E180041105B6B00F5106023FA01F18068C9015D
:103E2800C9B2114308407047406900F0010070476B
:103E3800D0F8001900F500630A4A0A40C0F80029C2
:103E48009A6802F00602042A05D1D0F8002942F047
:103E58000302C0F800295A68002042F480725A60B0
:103E6800704700BF00F8FFFF10B400240129C0F814
:103E7800104BD0F8104B44F40024C0F8104BD0F885
:103E8800104B44F01804C0F8104BD0F8104B44F015
:103E9800C044C0F8104B05D14FF08021C0F8142B56
:103EA800C0F8001B00205DF8044B70470B4B01E085
:103EB800013B10D00269002AFADA0369074A43F085
:103EC8000103036101E0013A05D0036913F001031E
:103ED800F9D1184670470320704700BF400D030012
:103EE80088B108B5D0F8143213B10023C0F81432E1
:103EF80009B1C0F810120121027080F8FC11FDF719
:103F080015F9002008BD0220704700BF19B1C0F89C
:103F18001412002070470220704700BF08B5FDF753
:103F280031F9002008BD00BF08B5D0F8143213B12C
:103F38001B68984708B1022008BD08BD08B5D0F82D
:103F480014325B689847002008BD00BF38B500F5FB
:103F580002750446284600F0D7FA94F808120120A2
:103F6800B4F80E2201F01F03C4F8F4018342C4F828
:103F7800F82115D00ED3022B06D001F0800120467F
:103F8800FDF71AF9002038BD2946204600F054FAFA
:103F9800002038BD2946204600F0E2F8002038BD50
:103FA8002946204600F02AFA002038BD38B50446D4
:103FB80029B9D0F8F431032B0CD0002038BDD0F843
:103FC80014329B69002BF8D090F8FC21032AF4D115
:103FD8009847F2E7D0F80C11D0F8103199420CD874
:103FE800D0F814321B691BB190F8FC21032A0FD0BA
:103FF800204600F0F1FA002038BDCD1A1146AB4238
:10400800C0F80C5128BF2B469AB200F0DDFAD4E76D
:104018009847EDE770B5044649B9D0F8F431022B5A
:1040280015D094F80032012B0CD0002070BDD0F8C8
:1040380014325B69002BF8D090F8FC21032AF4D1E4
:104048009847F2E70023002084F8003270BDC66963
:104058000D46036A9E4223D88669B6FBF3F203FB3A
:1040680012628AB9B3420FD8D0F8F8319E420BD207
:104078000A4600F091FAC4F8F8512B462A46294618
:104088002046FDF7CDF8CCE7D4F81432DB681BB135
:1040980094F8FC21032A0AD0204600F0A9FAC0E7C8
:1040A800F31A1146C3619AB200F076FAE5E72046A2
:1040B8009847F1E738B500224025044611462B46BB
:1040C800FDF768F82B460022C4F8105120468021DD
:1040D800FDF760F80122D4F81832256284F8FC2133
:1040E8002BB1D4F81432204621795B689847002018
:1040F80038BD00BF01740020704700BF034604218B
:10410800002093F8FC2183F8FC1183F8FD21704707
:104118000346002093F8FD2183F8FC21704700BF77
:1041280090F8FC21032A01D00020704708B5D0F888
:104138001432DB6903B19847002008BD002070479E
:104148000020704700207047D0F81422012108B5DC
:1041580080F8FC11017953689847002008BD00BF1A
:1041680030B54B7883B00D460446092B0BD8DFE8F1
:1041780003F035480A580A05650A7B158B8813B978
:10418800CB88002B7DD080212046FDF715F82046EE
:104198000021FDF711F8002003B030BD8978964D55
:1041A80001292970EFD890F8FC31022B00F08780A4
:1041B800032BE8D1002900F014814168012909D0B6
:1041C800C9B2FFF7BBFE297820466160FFF7ACFE55
:1041D8000228D8D0204600F0FFF9DCE790F8FC313F
:1041E80001220321023B9342CDD8D0F80432C260A9
:1041F80003B1C160022204F10C01204600F0BEF9AF
:10420800C9E790F8FC31023B012BBCD84B88012B45
:10421800C1D10022D0F81432C0F804229B68984714
:10422800D8E74B88012BB6D1D0F81422C0F8043255
:1042380093689847204600F0CFF9ACE74A88130AFC
:10424800013B062B9FD801A151F823F03743000802
:1042580059430008474300088F4100088F41000870
:1042680021430008E1420008CA88012A8BD190F84E
:10427800FC31022B1CD0032B85D1011D00F07EF9E7
:1042880089E790F8FC318D78032B05F07F053FF422
:104298007AAF80F8FE512946FCF7B2FF204600F0BD
:1042A8009BF9002D00F09080022384F8FC3172E71E
:1042B8000023014641F8083F00F060F96BE7002948
:1042C80088D001210323416080F8FC31FFF72CFEE0
:1042D80002287FF47FAF56E7037C002B7FF453AFAF
:1042E800D0F814320DF106001B6B98470723437072
:1042F800BDF80630002B3FF44EAFEA88002A3FF4A1
:104308004AAF93420146204628BF13461A46ADF8E5
:10431800063000F033F93EE7037C002B7FF433AF1F
:10432800D0F814320DF106005B6B9847E0E7D0F83F
:1043380010320DF10601007C1B689847D8E7D2B20D
:10434800052A3FF620AFDFE802F0271F170F372FA7
:10435800037C002B3CD1D0F814320DF106009B6A87
:10436800984702234370C3E7D0F810320DF10601D5
:10437800007C1B699847BBE7D0F810320DF10601A5
:10438800007CDB689847B3E7D0F810320DF10601DE
:10439800007C9B689847ABE7D0F810320DF1060116
:1043A800007C5B689847A3E7D0F810320DF106014E
:1043B800007C9B6998479BE7D0F810320DF1060105
:1043C800007C5B69984793E7012384F8FC31E2E6B7
:1043D800D0F814320DF10600DB6A984702234370C7
:1043E80086E70223416080F8FC31FFF7A7FD2046ED
:1043F80000F0F2F8CFE600BFA024012038B590F80D
:10440800FC310446032B03D10B790D46012B08D947
:104418008021FCF7D1FE20460021FCF7CDFE0020CC
:1044280038BDD0F814329B689847EB88002BF6D13A
:10443800204600F0D1F8F2E770B50B7805468A8877
:1044480003F06003202B57D04B780C46D6B2012BD3
:1044580034D019D3032B15D190F8FC31022B31D06D
:10446800032B40D14B8823B9730602D03146FCF7A1
:10447800A3FED5F81432214628469B68984728465B
:1044880000F0AAF8002070BD90F8FC31022B19D07A
:10449800032B28D106F07F041306314600EB0414E1
:1044A8004CBF143404F58274FCF796FE48BB2060B8
:1044B80021462846022200F061F8E3E790F8FC3133
:1044C800022B05D17206DDD03146FCF775FED9E71F
:1044D800032B08D14B88002BD4D17106CFD031469D
:1044E800FCF772FEC5E78021FCF766FE284600212E
:1044F800FCF762FE002070BDD0F814329B68984724
:10450800C0E701232360D3E70B7803704B7843702F
:10451800CA788B7803EB022343804A790B7903EB43
:1045280002238380CA798B7903EB0223C380704707
:1045380000B3037830B4F3B104460023013314F810
:10454800015FDBB2002DF9D15B000233DCB2032539
:1045580013800C704D7004785CB1022300255A1C3E
:10456800CC540233D2B2DBB28D5410F8014F002C78
:10457800F5D130BC704702242346E8E770B51546EC
:1045880002260A46002185612B46C561C0F8F46100
:10459800FCF73EFE002070BD08B513460A46002110
:1045A800FCF736FE002008BD70B5154603260A46FE
:1045B8000021C0F808512B46C0F80C51C0F8F4612E
:1045C800FCF72EFE002070BD08B513460A460021F0
:1045D800FCF726FE002008BD08B504220023C0F819
:1045E800F42119461A46FCF713FE002008BD00BF47
:1045F80008B505220023C0F8F42119461A46FCF72D
:104608000FFE002008BD00BFDFF834D0002103E012
:104618000C4B5B58435004310B480C4B42189A42E0
:10462800F6D30B4A02E0002342F8043B094B9A42B6
:10463800F9D3FCF7FDFE00F011F8FBF7F3FE704725
:10464800FFFF04200C520008F0140120B41E0120C2
:10465800B41E01202CB80120FEE7000070B50F4EF3
:104668000F4D761BB61018BF002405D0013455F83D
:10467800043B9847A642F9D10A4E0B4D761B00F031
:10468800EDFCB61018BF002406D0013455F8043BE1
:104698009847A642F9D170BD70BD00BF005200080E
:1046A800005200080852000800520008024B014658
:1046B800186800F00BB800BFA01A0120024B014691
:1046C800186800F091BB00BFA01A01202DE9F04F37
:1046D80001F10B05162D83B0064640F29F8035F098
:1046E800070500F1BF80A94200F2BC8000F0F4FA8F
:1046F800B5F5FC7FC0F09C826B0A00F0BA80042BF1
:1047080000F28381A80900F1390E4FEA4E033830D0
:10471800C44F07EB8303A3F108015C68A14207D1EA
:10472800ACE0002A80F2AC80E468A14200F0A680E8
:10473800636823F003035A1B0F2AF2DDB9493C6969
:1047480001F1080E744500F0B381636823F0030398
:104758005A1B0F2A00F39981002AC1F814E0C1F806
:1047680010E080F29E80B3F5007F80F06781DB085F
:1047780003F1010C01229B1002FA03F34A6851F875
:104788003C80C4F8088001EBCC091A43A9F108035E
:10479800E3604A6041F83C40C8F80C4083100124AB
:1047A8009C40944200F28A80144206D120F0030013
:1047B8006400144200F10400FAD007EBC009CC46AB
:1047C8008046DCF80C108C4507D173E1002A80F292
:1047D8008181C9688C4500F06D814B6823F0030323
:1047E8005A1B0F2AF2DD0C46D1F80CC054F8088F7A
:1047F8004B1945F001054D6042F00101C8F80CC0A5
:104808003046CCF808807B613B61C3F80CE0C3F804
:1048180008E059609A5000F061FA1FE0102921D889
:1048280000F05AFA1025062302207E4F07EB830377
:10483800A3F108025C68944200F045816368E1686E
:10484800A56823F00303234430465A68E96042F020
:1048580001028D605A6000F041FA0834204603B026
:10486800BDE8F08F00240C232046336003B0BDE878
:10487800F08F80234FF0400E3F2049E770465DE7F8
:104888002344E1685A68A56842F00102E9603046AD
:104898008D605A6000F022FA0834204603B0BDE863
:1048A800F08F234430465A6842F001025A6000F003
:1048B80015FA0834204603B0BDE8F08FBC68636879
:1048C80023F00308A84504D3C5EB08030F2B00F316
:1048D8008C80554BDFF860911A68D9F800300133A5
:1048E8002A4404EB080A00F0608102F580520F3276
:1048F80022F47F6222F00F0211463046019200F046
:10490800EFF9B0F1FF3F8346019A00F058818245E4
:1049180000F2FC80454B1968DA451144196000F033
:104928005381D9F80000DFF810E101301BBFCAEB52
:104938000B0A5144CEF800B019601BF0070100F0D3
:104948001781C1F10800C1F58051834408315A44E8
:10495800C2F30B02C2EB010949463046019300F04D
:10496800BFF9431C019B00F03F81CBEB00024A4496
:1049780042F001021968C7F808B04944BC42CBF8B4
:1049880004201960DFF8A49016D0B8F10F0F40F298
:10499800FD806268A8F10C0323F00703E01802F019
:1049A80001024FF0050E1A430F2B6260C0F804E0B5
:1049B800C0F808E000F21C811D4BBC681A689142DF
:1049C80088BF19601B4B1A689142626888BF1960DA
:1049D80022F003029542A2EB050301D80F2B04DC59
:1049E800304600F07BF9002438E7621943F00103F0
:1049F80045F0010565603046BA60536000F06EF915
:104A08000834204603B0BDE8F08F142B71D9542B1D
:104A180000F2A480280B00F16F0E4FEA4E036E30AF
:104A280076E600BFA41A0120AC240120B02401209E
:104A3800A8240120A4240120B01E01205A0A042A17
:104A48005ED9142A00F2B38002F15C0149005B329E
:104A580007EB810C57F82110DFF8DC81ACF1080C6A
:104A68008C4500F088804A6822F00302934202D203
:104A780089688C45F7D1D1F80CC07A68C4F80CC0A5
:104A8800A160CCF80840CC6088E6631942F00107C1
:104A980045F00105656030464B610B61C3F80CE0D9
:104AA800C3F808E05F609A50083400F017F9D5E6BB
:104AB8004A6873E608F1010818F0030F0CF1080CB6
:104AC8007FF47FAE30E0DC68A34208BF02303FF4D9
:104AD80035AEB3E60B440C465A68C96854F8085F0B
:104AE80042F001025A603046E9608D6000F0F6F845
:104AF800B4E603F15C0E03F15B004FEA4E0307E6F0
:104B08009A0902F1390149003832A1E7BC424A4BFF
:104B18003FF400AF9C68626822F003025AE759F834
:104B28000839994540F0828010F0030F00F1FF30FA
:104B3800F5D17B6823EA04037B6064009C423FF65E
:104B4800BDAE002C3FF4BAAE1C4240467FF435AEF1
:104B580064001C4200F10400FAD02EE6B3F5AA7FE7
:104B680018D8E80B00F1780E4FEA4E037730CFE5FE
:104B78004FF48051EBE60121D8F80430921001FA85
:104B880002F21A43C8F80420614677E70123CBF8FC
:104B9800043025E740F25452934220D8A80C00F183
:104BA8007D0E4FEA4E037C30B2E51032A4E6542A5B
:104BB80026D81A0B02F16F0149006E3248E7BC682B
:104BC800626822F0030205E7CAF30B0000287FF4AD
:104BD800A8AE4244BB6842F001025A60ECE6FE23EC
:104BE8004FF07F0E7E2093E501224FF00009C1E6C9
:104BF80004F10801304600F0F7F8D9F80010DBE6B8
:104C0800B2F5AA7F05D8DA0B02F1780149007732AC
:104C18001EE740F254518A4205D89A0C02F17D01F0
:104C280049007C3214E7FE217E2211E77B6884E785
:104C3800E808431C5B00F8E5A41A012070B4840757
:104C480046D0541E002A41D0CDB2034602E0621E6F
:104C5800E4B3144603F8015B9A07F8D1032C2ED964
:104C6800CDB245EA05250F2C45EA054519D903F1CA
:104C780010022646103E0F2E42F8105C42F80C5CDB
:104C880042F8085C42F8045C02F11002F2D8A4F180
:104C9800100222F00F0204F00F041032032C134408
:104CA8000DD91E462246043A032A46F8045BFAD870
:104CB800221F22F003020432134404F003042CB12F
:104CC800C9B21C4403F8011BA342FBD170BC704756
:104CD80014460346C2E700BF704700BF704700BFD5
:104CE80038B5074C0023054608462360FCF750FBFF
:104CF800431C00D038BD2368002BFBD02B6038BD87
:104D080028B80120024B13B1024800F005B87047DB
:104D1800000000002D4D0008002301461A461846E1
:104D280000F04AB938B5074D074C2C1BA41005D024
:104D3800013C55F8043D9847002CF9D1BDE83840AE
:104D480000F092B90C52000808520008F8B5234F39
:104D58000C460646FFF7C0FFBB685D6825F00305F3
:104D6800291B01F6EF7121F47F6121F00F01A1F5F4
:104D78008054B4F5805F07DB00213046FFF7B0FFB1
:104D8800BB682B44984204D03046FFF7A7FF0020A9
:104D9800F8BD61423046FFF7A3FF01300DD0104B3C
:104DA800BA6819682D1B45F001053046091B556086
:104DB8001960FFF793FF0120F8BD00213046FFF787
:104DC8008FFFBA68831A0F2BDEDD064C044924686E
:104DD80043F00103001B53600860D5E7A41A0120C3
:104DE800B0240120B01E0120002945D02DE9F04152
:104DF8000D468046FFF770FF55F8047C6A4927F096
:104E08000103A5F10804E2188E685068B24220F048
:104E1800030062D0FE0750600BD455F8087CE41BF1
:104E280001F1080EA56875453B446FD0E768EF604F
:104E3800BD6015186D68ED0742D543F00102626048
:104E4800E350B3F5007F18D2DB085A1C4D6851F8BF
:104E58003270A76001209B1000FA03F301EBC20037
:104E68001D430838E0604D6041F83240FC60404620
:104E7800BDE8F041FFF732BF70475A0A042A53D8F9
:104E88009A0902F139077F0002F1380501EB870022
:104E980051F827204449083890424DD0516821F0F4
:104EA80003018B4202D292689042F7D1D068E06049
:104EB800A2608460D4604046BDE8F041FFF70EBFB1
:104EC80095683A4FBD4203443FD0D068E86043F04C
:104ED800010285606260E350B3E7FF07034407D42B
:104EE80055F8082CA41A1344A068E268C2609060C0
:104EF8002F4A126843F00100934260608C60B6D379
:104F08002C4B40461968FFF721FFB0E71118496894
:104F1800C90744D49168D268CA60034443F00100C9
:104F280091606060E350A2E7142A17D802F15C0789
:104F38007F0002F15B05A9E7AA104B68012505FA75
:104F480002F213434B600246B1E743F001024C61A1
:104F58000C61E560A5606260E35088E7542A06D8D2
:104F68001A0B02F16F077F0002F16E058EE7B2F5AA
:104F7800AA7F06D8DA0B02F178077F0002F17705DD
:104F880084E740F25450824206D89A0C02F17D0719
:104F98007F0002F17C0579E7FE277E2576E743F05E
:104FA80001026260E35062E7A41A0120AC1A0120F2
:104FB800AC1E0120AC2401202DE9F047254C2568C2
:104FC800D5F848410646884692469946C4B3606873
:104FD8001F2817DC431C76B104EB80050122C5F8B5
:104FE80088A0D4F8881182401143022EC4F8881191
:104FF800C5F808911ED00230636044F82080002074
:10500800BDE8F087144B03B34FF4C870FFF74EFBAD
:105018000446D0B1D5F84831002780E88800C5F8A3
:10502800484138460123C4F88871C4F88C71002EB1
:10503800E1D0D1E7D4F88C110A43C4F88C21DAE71F
:1050480005F5A674C5F84841C1E74FF0FF30BDE843
:10505800F08700BFFC510008B5460008F8B500BF4E
:10506800F8BC08BC9E467047F8B500BFF8BC08BC41
:045078009E46704799
:10507C00524F424F544953004F70656E4352205665
:10508C0069727475616C20436F6D506F7274206916
:10509C006E204853204D6F64650000004F70656EA4
:1050AC004352205669727475616C20436F6D506F5A
:1050BC00727420696E204653204D6F6465000000A9
:1050CC0056435020436F6E6669670000564350206C
:1050DC00496E746572666163650000000000000033
:1050EC0000000000000000000000000000000000B4
:1050FC0000000000000000000000000000000000A4
:10510C000000000000000000000000000000000093
:10511C000000000000000000000000000000000083
:10512C000000000000000000000000000000000073
:10513C000000000000000000000000000000000063
:10514C000000000000000000000000000000000053
:10515C000000000000000000000000000000000043
:10516C000000000000000000000000000000000033
:10517C000000F4A6083067E21CE974B225000000B8
:10518C000000000000000000000000000000000013
:10519C000000000000000000000000000000000003
:1051AC0000000000000000000000000000000000F3
:1051BC0000000000000000000000000000000000E3
:1051CC0000000000000000000000000000000000D3
:1051DC0000000000000000000000000000000000C3
:1051EC00010203040102030406070809430000003E
:0451FC007816012000
:085200000D4D00083502000805
:045208000D0200088B
:10520C0000230516002002400200000009024300A2
:10521C00020100C032090400000102020100052451
:10522C0000100105240100010424020205240600DB
:10523C00010705820308001009040100020A00009E
:10524C000007050102400000070581024000000034
:10525C002D0B0008F10A0008810A0008000000006C
:10526C00F9090008E5090008510A000800000000CF
:10527C0000000000000000002D0A0008210A0008B0
:10528C00390A0008450A00080A060002000000401E
:10529C000100000009074300020104C032090400A8
:1052AC000001020201000524001001052401000187
:1052BC00042402020524060001070582030800FFEE
:1052CC0009040100020A0000000705010240000069
:1052DC00070581024000000009024300020100C0E2
:1052EC00320904000001020201000524001001052E
:1052FC002401000104240202052406000107058292
:10530C000308001009040100020A0000000705014F
:10531C0002000200070581020002000000C2010029
:10532C0000000800A10C0008490C0008F10C000852
:10533C004D0C00084512000851120008D912000843
:10534C00F5120008911200081D130008391300080B
:10535C0004030904120100020000004083044057BA
:10536C0000020102030100001A030000000000000B
:10537C000000000000000000000000000000000021
:10538C00000000000024F40000000000641901205B
:10539C00CC190120341A012000000000000000008C
:1053AC0000000000000000000000000000000000F1
:1053BC00000000000000000000000000F851000890
:1053CC0000000000000000000000000000000000D1
:1053DC0000000000000000000000000000000000C1
:1053EC0000000000000000000000000000000000B1
:1053FC0000000000000000000000000000000000A1
:10540C000000000000000000000000000000000090
:10541C000000000000000000000000000000000080
:10542C000000000000000000000000000000000070
:10543C0001000000000000000E33CDAB34126DE60D
:10544C00ECDE05000B000000000000000000000076
:10545C000000000000000000000000000000000040
:10546C000000000000000000000000000000000030
:10547C000000000000000000000000000000000020
:10548C000000000000000000000000000000000010
:1057BC00781601200000000000000000A41A01204F
:1057CC00A41A0120AC1A0120AC1A0120B41A012031
:1057DC00B41A0120BC1A0120BC1A0120C41A0120E1
:1057EC00C41A0120CC1A0120CC1A0120D41A012091
:1057FC00D41A0120DC1A0120DC1A0120E41A012041
:10580C00E41A0120EC1A0120EC1A0120F41A0120F0
:10581C00F41A0120FC1A0120FC1A0120041B01209F
:10582C00041B01200C1B01200C1B0120141B01204C
:10583C00141B01201C1B01201C1B0120241B0120FC
:10584C00241B01202C1B01202C1B0120341B0120AC
:10585C00341B01203C1B01203C1B0120441B01205C
:10586C00441B01204C1B01204C1B0120541B01200C
:10587C00541B01205C1B01205C1B0120641B0120BC
:10588C00641B01206C1B01206C1B0120741B01206C
:10589C00741B01207C1B01207C1B0120841B01201C
:1058AC00841B01208C1B01208C1B0120941B0120CC
:1058BC00941B01209C1B01209C1B0120A41B01207C
:1058CC00A41B0120AC1B0120AC1B0120B41B01202C
:1058DC00B41B0120BC1B0120BC1B0120C41B0120DC
:1058EC00C41B0120CC1B0120CC1B0120D41B01208C
:1058FC00D41B0120DC1B0120DC1B0120E41B01203C
:10590C00E41B0120EC1B0120EC1B0120F41B0120EB
:10591C00F41B0120FC1B0120FC1B0120041C01209A
:10592C00041C01200C1C01200C1C0120141C012047
:10593C00141C01201C1C01201C1C0120241C0120F7
:10594C00241C01202C1C01202C1C0120341C0120A7
:10595C00341C01203C1C01203C1C0120441C012057
:10596C00441C01204C1C01204C1C0120541C012007
:10597C00541C01205C1C01205C1C0120641C0120B7
:10598C00641C01206C1C01206C1C0120741C012067
:10599C00741C01207C1C01207C1C0120841C012017
:1059AC00841C01208C1C01208C1C0120941C0120C7
:1059BC00941C01209C1C01209C1C0120A41C012077
:1059CC00A41C0120AC1C0120AC1C0120B41C012027
:1059DC00B41C0120BC1C0120BC1C0120C41C0120D7
:1059EC00C41C0120CC1C0120CC1C0120D41C012087
:1059FC00D41C0120DC1C0120DC1C0120E41C012037
:105A0C00E41C0120EC1C0120EC1C0120F41C0120E6
:105A1C00F41C0120FC1C0120FC1C0120041D012095
:105A2C00041D01200C1D01200C1D0120141D012042
:105A3C00141D01201C1D01201C1D0120241D0120F2
:105A4C00241D01202C1D01202C1D0120341D0120A2
:105A5C00341D01203C1D01203C1D0120441D012052
:105A6C00441D01204C1D01204C1D0120541D012002
:105A7C00541D01205C1D01205C1D0120641D0120B2
:105A8C00641D01206C1D01206C1D0120741D012062
:105A9C00741D01207C1D01207C1D0120841D012012
:105AAC00841D01208C1D01208C1D0120941D0120C2
:105ABC00941D01209C1D01209C1D0120A41D012072
:105ACC00A41D0120AC1D0120AC1D0120B41D012022
:105ADC00B41D0120BC1D0120BC1D0120C41D0120D2
:105AEC00C41D0120CC1D0120CC1D0120D41D012082
:105AFC00D41D0120DC1D0120DC1D0120E41D012032
:105B0C00E41D0120EC1D0120EC1D0120F41D0120E1
:105B1C00F41D0120FC1D0120FC1D0120041E012090
:105B2C00041E01200C1E01200C1E0120141E01203D
:105B3C00141E01201C1E01201C1E0120241E0120ED
:105B4C00241E01202C1E01202C1E0120341E01209D
:105B5C00341E01203C1E01203C1E0120441E01204D
:105B6C00441E01204C1E01204C1E0120541E0120FD
:105B7C00541E01205C1E01205C1E0120641E0120AD
:105B8C00641E01206C1E01206C1E0120741E01205D
:105B9C00741E01207C1E01207C1E0120841E01200D
:105BAC00841E01208C1E01208C1E0120941E0120BD
:105BBC00941E01209C1E01209C1E0120000002004E
:045BCC00FFFFFFFFD9
:040000050800461198
:00000001FF
